:100000000C9450000C946D000C946D000C946D00D9
:100010000C946D000C946D000C946D000C94C90050
:100020000C946D000C946D000C946D000C944D01BB
:100030000C941C010C946D000C946D000C946D00DC
:100040000C946D000C946D000C946D000C946D007C
:100050000C946D000C946D000C946D000C946D006C
:100060000C946D000C946D000C946D000C946D005C
:100070000C946D000C946D000C946D000C946D004C
:100080000C946D000C946D000C946D000C946D003C
:100090000C946D000C946D000C946D000C946D002C
:1000A00011241FBECFEFCDBFDFE3DEBF18E2A0E01B
:1000B000B8E2EAEAF2E002C005900D92AA30B10778
:1000C000D9F728E2AAE0B8E201C01D92A631B20732
:1000D000E1F70E946F000C9453010C94000088ED2E
:1000E00084BF10926100789484E08093810A91E546
:1000F0009093840A91E09093850A1092800A26E4F6
:100100002093920123E02093B4011092000A3CE076
:100110003093050A1092030A1092000A1092090AFD
:1001200044E650E04093260A5093270A90930A0A27
:100130002093010A1092C1012AE02093CD01109270
:10014000CE012AEA2093CF0130E43093CC012091F4
:10015000CC0121602093CC019093C00190E8909352
:100160005604309342041092280A1092290A1092E1
:10017000380A1092390A1CBA9091000A9160909343
:10018000000A92E09093E105809321048093250476
:10019000FFCF0F930CB30093380A0DB30093390AC5
:1001A0000FB70F93AF93BF9301E000930B0A009139
:1001B0000128000F81F4009100280A95D9F00093DE
:1001C0000028A0910528B09106280D91A09305283C
:1001D000B0930628001F00930128A9E1B0E010F0B9
:1001E000ABE4B0E0ACBBBDBBBF91AF910F910FBF13
:1001F0000F91189500910A28039500930A2804305E
:1002000059F0013019F0023021F0EECFA2E3B0E056
:10021000E9CFA0E0B0E0E6CF0091CC010E7F0093E3
:10022000CC010091800A01600093800A0FEF0093D7
:10023000260A0093270AD8CF0F930FB70F93AF93D7
:10024000BF9304E000932704A0918C0AB0918D0A1B
:1002500000E00093200A0093210AA253B0400091CD
:100260000728079578F4A0910828B09109280D93E4
:10027000A0930828B093092800910B2803950093B8
:100280000B2800E80093072804E000932704BF919F
:10029000AF910F910FBF0F9118950F9300E400934A
:0A02A0000B0A0F911895F894FFCF98
:0A02AA0004804000000228800C28A8
:00000001FF
